:100000000C9434000C943E000C943E000C943E0082
:100010000C943E000C943E000C943E000C943E0068
:100020000C943E000C943E000C943E000C943E0058
:100030000C943E000C943E000C943E000C943E0048
:100040000C943E000C943E000C943E000C943E0038
:100050000C943E000C943E000C943E000C943E0028
:100060000C943E000C943E0011241FBECFEFD8E04C
:10007000DEBFCDBF0E9440000C94E1000C94000054
:100080008FEF84B98AB917B815B81BB8309B0DC06B
:1000900085B1846085B985B1806185B98BB1806295
:1000A0008BB98BB184608BB9F1CF319B0DC085B119
:1000B000816085B985B1806285B98BB180618BB96A
:1000C0008BB184608BB9E2CF329B0DC085B181606A
:1000D00085B985B1886085B98BB188608BB98BB1E2
:1000E00082608BB9D3CF339B0DC085B1826085B957
:1000F00085B1886085B98BB180628BB98BB1816025
:100100008BB9C4CF15B81BB885B1846085B985B1EA
:10011000806185B98BB180628BB98BB184608BB9FA
:100120002FEF85EE9AEA215080409040E1F700C021
:10013000000015B81BB885B1816085B985B18062B2
:1001400085B98BB180618BB98BB184608BB92FEF8E
:1001500085EE9AEA215080409040E1F700C000000F
:1001600015B81BB885B1816085B985B1886085B93E
:100170008BB188608BB98BB182608BB92FEF85EE24
:100180009AEA215080409040E1F700C0000015B885
:100190001BB885B1826085B985B1886085B98BB19E
:1001A00080628BB98BB181608BB92FEF85EE9AEAB3
:1001B000215080409040E1F700C0000015B81BB806
:0601C00065CFF894FFCFAB
:00000001FF
